{
  "contractName": "Faucet",
  "abi": [
    {
      "inputs": [],
      "name": "numberOfFunders",
      "outputs": [
        {
          "internalType": "uint256",
          "name": "",
          "type": "uint256"
        }
      ],
      "stateMutability": "view",
      "type": "function",
      "constant": true
    },
    {
      "inputs": [],
      "name": "owner",
      "outputs": [
        {
          "internalType": "address",
          "name": "",
          "type": "address"
        }
      ],
      "stateMutability": "view",
      "type": "function",
      "constant": true
    },
    {
      "stateMutability": "payable",
      "type": "receive",
      "payable": true
    },
    {
      "inputs": [],
      "name": "emitLog",
      "outputs": [
        {
          "internalType": "bytes32",
          "name": "",
          "type": "bytes32"
        }
      ],
      "stateMutability": "pure",
      "type": "function",
      "constant": true
    },
    {
      "inputs": [
        {
          "internalType": "address",
          "name": "newOwner",
          "type": "address"
        }
      ],
      "name": "transferOwnership",
      "outputs": [],
      "stateMutability": "nonpayable",
      "type": "function"
    },
    {
      "inputs": [],
      "name": "addFunds",
      "outputs": [],
      "stateMutability": "payable",
      "type": "function",
      "payable": true
    },
    {
      "inputs": [
        {
          "internalType": "uint8",
          "name": "index",
          "type": "uint8"
        }
      ],
      "name": "getFunderAtIndex",
      "outputs": [
        {
          "internalType": "address",
          "name": "",
          "type": "address"
        }
      ],
      "stateMutability": "view",
      "type": "function",
      "constant": true
    },
    {
      "inputs": [
        {
          "internalType": "uint256",
          "name": "withdrawAmount",
          "type": "uint256"
        }
      ],
      "name": "withdraw",
      "outputs": [],
      "stateMutability": "nonpayable",
      "type": "function"
    },
    {
      "inputs": [],
      "name": "getAllFunders",
      "outputs": [
        {
          "internalType": "address[]",
          "name": "",
          "type": "address[]"
        }
      ],
      "stateMutability": "view",
      "type": "function",
      "constant": true
    }
  ],
  "bytecode": "0x608060405234801561001057600080fd5b50336000806101000a81548173ffffffffffffffffffffffffffffffffffffffff021916908373ffffffffffffffffffffffffffffffffffffffff160217905550610aef806100606000396000f3fe60806040526004361061007f5760003560e01c8063a26759cb1161004e578063a26759cb14610147578063dc79a7fc14610151578063f2fde38b1461017c578063f42c13bf146101a557610086565b80630a93cf331461008b5780632e1a7d4d146100c85780636fbbb55d146100f15780638da5cb5b1461011c57610086565b3661008657005b600080fd5b34801561009757600080fd5b506100b260048036038101906100ad91906106db565b6101d0565b6040516100bf9190610882565b60405180910390f35b3480156100d457600080fd5b506100ef60048036038101906100ea91906106b2565b610210565b005b3480156100fd57600080fd5b506101066102a7565b604051610113919061089d565b60405180910390f35b34801561012857600080fd5b506101316103f6565b60405161013e9190610882565b60405180910390f35b61014f61041a565b005b34801561015d57600080fd5b5061016661054b565b604051610173919061091a565b60405180910390f35b34801561018857600080fd5b506101a3600480360381019061019e9190610689565b610551565b005b3480156101b157600080fd5b506101ba610622565b6040516101c791906108bf565b60405180910390f35b6000600260008360ff16815260200190815260200160002060009054906101000a900473ffffffffffffffffffffffffffffffffffffffff169050919050565b8067016345785d8a000081111561025c576040517f08c379a0000000000000000000000000000000000000000000000000000000008152600401610253906108fa565b60405180910390fd5b3373ffffffffffffffffffffffffffffffffffffffff166108fc839081150290604051600060405180830381858888f193505050501580156102a2573d6000803e3d6000fd5b505050565b6060600060035467ffffffffffffffff8111156102ed577f4e487b7100000000000000000000000000000000000000000000000000000000600052604160045260246000fd5b60405190808252806020026020018201604052801561031b5781602001602082028036833780820191505090505b50905060005b6003548160ff1610156103ee57600260008260ff16815260200190815260200160002060009054906101000a900473ffffffffffffffffffffffffffffffffffffffff16828260ff16815181106103a1577f4e487b7100000000000000000000000000000000000000000000000000000000600052603260045260246000fd5b602002602001019073ffffffffffffffffffffffffffffffffffffffff16908173ffffffffffffffffffffffffffffffffffffffff168152505080806103e690610a1b565b915050610321565b508091505090565b60008054906101000a900473ffffffffffffffffffffffffffffffffffffffff1681565b6000339050600160008273ffffffffffffffffffffffffffffffffffffffff1673ffffffffffffffffffffffffffffffffffffffff16815260200190815260200160002060009054906101000a900460ff166105485760036000815480929190610483906109d2565b919050555060018060008373ffffffffffffffffffffffffffffffffffffffff1673ffffffffffffffffffffffffffffffffffffffff16815260200190815260200160002060006101000a81548160ff0219169083151502179055508060026000600360008154809291906104f7906109d2565b91905055815260200190815260200160002060006101000a81548173ffffffffffffffffffffffffffffffffffffffff021916908373ffffffffffffffffffffffffffffffffffffffff1602179055505b50565b60035481565b60008054906101000a900473ffffffffffffffffffffffffffffffffffffffff1673ffffffffffffffffffffffffffffffffffffffff163373ffffffffffffffffffffffffffffffffffffffff16146105df576040517f08c379a00000000000000000000000000000000000000000000000000000000081526004016105d6906108da565b60405180910390fd5b806000806101000a81548173ffffffffffffffffffffffffffffffffffffffff021916908373ffffffffffffffffffffffffffffffffffffffff16021790555050565b60007f48656c6c6f20576f726c64000000000000000000000000000000000000000000905090565b60008135905061065981610a74565b92915050565b60008135905061066e81610a8b565b92915050565b60008135905061068381610aa2565b92915050565b60006020828403121561069b57600080fd5b60006106a98482850161064a565b91505092915050565b6000602082840312156106c457600080fd5b60006106d28482850161065f565b91505092915050565b6000602082840312156106ed57600080fd5b60006106fb84828501610674565b91505092915050565b6000610710838361071c565b60208301905092915050565b6107258161097f565b82525050565b6107348161097f565b82525050565b600061074582610945565b61074f818561095d565b935061075a83610935565b8060005b8381101561078b5781516107728882610704565b975061077d83610950565b92505060018101905061075e565b5085935050505092915050565b6107a181610991565b82525050565b60006107b460228361096e565b91507f204f6e6c79206f776e65722063616e2063616c6c20746869732066756e63746960008301527f6f6e0000000000000000000000000000000000000000000000000000000000006020830152604082019050919050565b600061081a60248361096e565b91507f43616e206e6f74207769746864726177206d6f7265207468616e20302e31206560008301527f74686572000000000000000000000000000000000000000000000000000000006020830152604082019050919050565b61087c816109bb565b82525050565b6000602082019050610897600083018461072b565b92915050565b600060208201905081810360008301526108b7818461073a565b905092915050565b60006020820190506108d46000830184610798565b92915050565b600060208201905081810360008301526108f3816107a7565b9050919050565b600060208201905081810360008301526109138161080d565b9050919050565b600060208201905061092f6000830184610873565b92915050565b6000819050602082019050919050565b600081519050919050565b6000602082019050919050565b600082825260208201905092915050565b600082825260208201905092915050565b600061098a8261099b565b9050919050565b6000819050919050565b600073ffffffffffffffffffffffffffffffffffffffff82169050919050565b6000819050919050565b600060ff82169050919050565b60006109dd826109bb565b91507fffffffffffffffffffffffffffffffffffffffffffffffffffffffffffffffff821415610a1057610a0f610a45565b5b600182019050919050565b6000610a26826109c5565b915060ff821415610a3a57610a39610a45565b5b600182019050919050565b7f4e487b7100000000000000000000000000000000000000000000000000000000600052601160045260246000fd5b610a7d8161097f565b8114610a8857600080fd5b50565b610a94816109bb565b8114610a9f57600080fd5b50565b610aab816109c5565b8114610ab657600080fd5b5056fea2646970667358221220a4e280b16da241d55ec282c6c75dd923bb2f34ff18d71d112c684600b121bce264736f6c63430008000033",
  "immutableReferences": {},
  "source": "// SPDX-License-Identifier: MIT\r\npragma solidity >=0.4.22 <0.9.0;\r\n\r\nimport \"./Owned.sol\";\r\nimport \"./Logger.sol\";\r\n\r\ncontract Faucet is Owned, Logger {\r\n    mapping(address => bool) private funders;\r\n    mapping(uint => address) private lutFunders;\r\n    uint public numberOfFunders;\r\n\r\n    modifier limitWithdrawAmount(uint withdrawAmount) {\r\n        require(\r\n            withdrawAmount <= 100000000000000000,\r\n            \"Can not withdraw more than 0.1 ether\"\r\n        );\r\n        _;\r\n    }\r\n\r\n    receive() external payable {}\r\n\r\n    function emitLog() public pure override returns (bytes32) {\r\n        return \"Hello World\";\r\n    }\r\n\r\n    function transferOwnership(address newOwner) external onlyOwner {\r\n        owner = newOwner;\r\n    }\r\n\r\n    function addFunds() external payable {\r\n        address _funder = msg.sender;\r\n        if (!funders[_funder]) {\r\n            numberOfFunders++;\r\n            funders[_funder] = true;\r\n            lutFunders[numberOfFunders++] = _funder;\r\n        }\r\n    }\r\n\r\n    function getFunderAtIndex(uint8 index) external view returns (address) {\r\n        return lutFunders[index];\r\n    }\r\n\r\n    function withdraw(\r\n        uint withdrawAmount\r\n    ) external limitWithdrawAmount(withdrawAmount) {\r\n        payable(msg.sender).transfer(withdrawAmount);\r\n    }\r\n\r\n    function getAllFunders() public view returns (address[] memory) {\r\n        address[] memory _funders = new address[](numberOfFunders);\r\n        for (uint8 i = 0; i < numberOfFunders; i++) {\r\n            _funders[i] = lutFunders[i];\r\n        }\r\n\r\n        return _funders;\r\n    }\r\n}\r\n",
  "sourcePath": "D:\\faucet\\contracts\\FaucetContract.sol",
  "compiler": {
    "name": "solc",
    "version": "0.8.0+commit.c7dfd78e.Emscripten.clang"
  },
  "schemaVersion": "3.4.14",
  "updatedAt": "2023-08-06T09:41:46.422Z",
  "networkType": "ethereum",
  "devdoc": {
    "kind": "dev",
    "methods": {},
    "version": 1
  },
  "userdoc": {
    "kind": "user",
    "methods": {},
    "version": 1
  }
}